:100000000C9462000C948A000C948A000C948A0070
:100010000C948A000C948A000C948A000C948A0038
:100020000C948A000C948A000C948A000C948A0028
:100030000C948A000C948A000C948A000C948A0018
:100040000C94FC010C948A000C946C020C944602F3
:100050000C948A000C948A000C948A000C948A00F8
:100060000C948A000C948A000000000025002800EF
:100070002B0000000000240027002A0000000000E0
:1000800023002600290004040404040404040202DA
:100090000202020203030303030301020408102007
:1000A0004080010204081020010204081020000012
:1000B0000008000201000003040700000000000027
:1000C0000000350411241FBECFEFD8E0DEBFCDBF46
:1000D00021E0A4E2B1E001C01D92AE3CB207E1F71D
:1000E00011E0A0E0B1E0E4EAFDE002C005900D926D
:1000F000A432B107D9F710E0C2E6D0E004C02197DE
:10010000FE010E94CE04C136D107C9F70E949E02AB
:100110000C94D0060C9400003FB7F8948091C6016F
:100120009091C701A091C801B091C90126B5A89BC3
:1001300005C02F3F19F00196A11DB11D3FBFBA2F79
:10014000A92F982F8827820F911DA11DB11DBC01D9
:10015000CD0142E0660F771F881F991F4A95D1F79E
:100160000895CF92DF92EF92FF920F931F93CF9358
:10017000DF936C017A018B01C0E0D0E0CE15DF0582
:1001800081F0D8016D918D01D601ED91FC91019026
:10019000F081E02DC6010995892B11F02196EECF53
:1001A0007E01C701DF91CF911F910F91FF90EF90DA
:1001B000DF90CF900895089580E090E00895FC01CD
:1001C000538D448D252F30E0842F90E0821B930BBC
:1001D000541710F0CF96089501970895FC01918D62
:1001E000828D981761F0828DDF01A80FB11D5D9699
:1001F0008C91928D9F5F9F73928F90E008958FEF07
:100200009FEF0895FC01918D828D981731F0828DBA
:10021000E80FF11D858D90E008958FEF9FEF089511
:10022000FC01918D228D892F90E0805C9F4F821B75
:1002300091098F739927089584E291E00E9410013B
:1002400021E0892B09F420E0822F0895FC01848DA0
:10025000DF01A80FB11DA35ABF4F2C91848D90E0F0
:1002600001968F739927848FA689B7892C93A089CB
:10027000B1898C91837080648C93938D848D981355
:1002800006C00288F389E02D80818F7D80830895E8
:10029000EF92FF920F931F93CF93DF93EC0181E0D6
:1002A000888F9B8D8C8D981305C0E889F989808192
:1002B00085FD26C0F62E0B8D10E00F5F1F4F0F73CC
:1002C0001127E02E8C8DE8120CC00FB607FCFACF78
:1002D000E889F989808185FFF5CFCE010E9426014A
:1002E000F1CF8B8DFE01E80FF11DE35AFF4FF08235
:1002F0009FB7F8940B8FEA89FB89808180620AC0DE
:100300009FB7F894EE89FF896083E889F989808135
:100310008370806480839FBF81E090E0DF91CF9104
:100320001F910F91FF90EF900895CF93DF93EC0111
:10033000888D8823C9F0EA89FB89808185FD05C005
:10034000A889B9898C9186FD0FC00FB607FCF5CF3F
:10035000808185FFF2CFA889B9898C9185FFEDCF87
:10036000CE010E942601E7CFDF91CF91089580E072
:1003700090E0892B29F00E941C0181110C9400004F
:100380000895CF93DF93EC0188819981009711F054
:100390000E946C05198218821D821C821B821A829F
:1003A000DF91CF9108950E94BB060F931F93CF93C7
:1003B000DF93EC0188819981009729F02A813B81A4
:1003C0002617370788F48B016F5F7F4F0E94F50572
:1003D000009761F0998388831B830A832C813D8178
:1003E000232B11F4FC01108281E001C080E0DF9139
:1003F000CF911F910F9108951F920F920FB60F92F8
:1004000011242F933F938F939F93AF93BF9380912A
:10041000C2019091C301A091C401B091C501309176
:10042000C10123E0230F2D3720F40196A11DB11D3A
:1004300005C026E8230F0296A11DB11D2093C1011E
:100440008093C2019093C301A093C401B093C501EE
:100450008091C6019091C701A091C801B091C901D6
:100460000196A11DB11D8093C6019093C701A09371
:10047000C801B093C901BF91AF919F918F913F91F6
:100480002F910F900FBE0F901F9018951F920F92F3
:100490000FB60F9211242F933F934F935F936F9357
:1004A0007F938F939F93AF93BF93EF93FF9384E2D8
:1004B00091E00E942601FF91EF91BF91AF919F9132
:1004C0008F917F916F915F914F913F912F910F90FD
:1004D0000FBE0F901F9018951F920F920FB60F929C
:1004E00011242F938F939F93EF93FF93E091340107
:1004F000F09135018081E0913A01F0913B0182FD5C
:1005000012C0908180913D018F5F8F7320913E01D9
:10051000821751F0E0913D01F0E0EC5DFE4F958FC8
:1005200080933D0101C08081FF91EF919F918F9158
:100530002F910F900FBE0F901F901895CF93DF93C0
:10054000CDB7DEB768970FB6F894DEBF0FBECDBF4C
:10055000789484B5826084BD84B5816084BD85B59E
:10056000826085BD85B5816085BD80916E008160AA
:1005700080936E0010928100809181008260809350
:100580008100809181008160809381008091800052
:100590008160809380008091B10084608093B1007D
:1005A0008091B00081608093B00080917A00846077
:1005B00080937A0080917A00826080937A008091A3
:1005C0007A00816080937A0080917A0080688093BD
:1005D0007A001092C100E0913401F091350182E07F
:1005E0008083E0913001F09131011082E09132017D
:1005F000F09133018FEC808310923C01E09138013F
:10060000F091390186E08083E0913601F091370165
:10061000808180618083E0913601F0913701808193
:1006200088608083E0913601F09137018081806895
:100630008083E0913601F091370180818F7D808346
:100640004EE9242E40E0342EF10144915AE8A52EC3
:1006500050E0B52EF50184918823C9F090E0880F11
:10066000991FFC01EE58FF4FA591B491FC01E85988
:10067000FF4F259134915FB7F8949C91842F80951A
:1006800098239C93F9018081842B80835FBF22EBA8
:10069000822E20E0922E8E010F5F1F4FF401849175
:1006A000F1012491F50194919923C1F1882339F145
:1006B000833091F038F48130A9F0823001F584B5AF
:1006C0008F7D12C0873091F08830A1F08430B9F46A
:1006D000809180008F7D03C0809180008F77809310
:1006E00080000DC084B58F7784BD09C08091B000B3
:1006F0008F7703C08091B0008F7D8093B000E92F89
:10070000F0E0EE0FFF1FE458FF4FA591B4918C91DC
:10071000282381E090E021F480E002C080E090E0B6
:100720001C8A1B8A1E8A1D8A188E1F8A4AE0B801FD
:100730000E946204F80101900020E9F731977F01DF
:10074000E01AF10AB701CE0143960E94D50181114A
:1007500005C0CE0143960E94C10107C0F88EEF8A02
:10076000B8018B899C890E94C9061A8219821C8251
:100770001B821E821D8267E070E0C8010E94D501C5
:10078000811104C0C8010E94C1010AC087E090E045
:100790009E838D8368E171E089819A810E94C906F8
:1007A0008F89988D6B887C886114710409F459C015
:1007B0000097B1F0ED80FE80E80EF91EB701C80188
:1007C0000E94D501882309F44CC029813A818D818A
:1007D0009E81B301820F931F0E94C906FE82ED82A3
:1007E0004D815E8169817A8184E291E00E94B1004D
:1007F00042E050E060E271E084E291E00E94B100EA
:1008000089819A810E946C058B899C890E946C0564
:100810000E948C006B017C0184E6482E512C612CD7
:10082000712C0E948C00DC01CB018C199D09AE0952
:10083000BF09883E9340A105B10598F3F1E04F1A36
:1008400051086108710828EEC20E23E0D21EE11C97
:10085000F11C411451046104710419F70E94B7019D
:100860001DCFC8010E94C101BBCFE4E2F1E01382B9
:10087000128288EE93E0A0E0B0E084839583A683A3
:10088000B7838AE091E09183808385EC90E095873F
:10089000848784EC90E09787868780EC90E0918B4A
:1008A000808B81EC90E0938B828B82EC90E0958B37
:1008B000848B86EC90E0978B868B118E128E138E34
:1008C000148E0895BB274A3031F4992322F4BDE2F7
:1008D000909581959F4F0C946E04BB27FB01552783
:1008E000AA27880F991FAA1FA41710F0A41B83958D
:1008F0005051B9F7A05DAA3308F0A95DA193009704
:1009000079F7B111B1931192CB010C948704DC01FA
:10091000FC01672F71917723E1F7329704C07C9136
:100920006D9370836291AE17BF07C8F308952F923D
:100930003F924F925F926F927F928F929F92AF926F
:10094000BF92CF92DF92EF92FF920F931F93CF93BC
:10095000DF93CDB7DEB7CA1BDB0B0FB6F894DEBF53
:100960000FBECDBF09942A88398848885F846E8479
:100970007D848C849B84AA84B984C884DF80EE80C3
:10098000FD800C811B81AA81B981CE0FD11D0FB6CC
:10099000F894DEBF0FBECDBFED010895EE0FFF1F2F
:1009A0000590F491E02D09940F931F93CF93DF935B
:1009B0008230910510F482E090E0E091CC01F0915A
:1009C000CD0120E030E0A0E0B0E0309719F14081A7
:1009D00051810281138148175907C8F08417950780
:1009E00069F4109731F012960C93129713961C939A
:1009F00027C00093CC011093CD0122C021153105F1
:100A000019F04217530718F49A01BD01EF01DF01F5
:100A1000F801DBCF21153105F9F0281B390B243003
:100A2000310580F48A819B816115710521F0FB01FC
:100A30009383828304C09093CD018093CC01FE0107
:100A4000329644C0FE01E20FF31F8193919322502E
:100A50003109398328833AC02091CA013091CB01F2
:100A6000232B41F420910201309103013093CB01FB
:100A70002093CA0120910001309101012115310517
:100A800041F42DB73EB74091040150910501241B5C
:100A9000350BE091CA01F091CB01E217F307A0F406
:100AA0002E1B3F0B2817390778F0AC014E5F5F4FC4
:100AB0002417350748F04E0F5F1F5093CB0140932A
:100AC000CA018193919302C0E0E0F0E0CF01DF9191
:100AD000CF911F910F910895CF93DF93009709F461
:100AE00081C0FC01329713821282A091CC01B09197
:100AF000CD01109781F420813181820F931F2091C5
:100B0000CA013091CB012817390751F5F093CB0179
:100B1000E093CA0167C0ED0120E030E0CE17DF07A7
:100B200040F44A815B819E0141155105F1F0EA01D3
:100B3000F5CFD383C28340815181840F951FC8179D
:100B4000D90759F488819981840F951F0296918362
:100B500080838A819B81938382832115310529F4C7
:100B6000F093CD01E093CC013DC0E901FB83EA8322
:100B700049915991C40FD51FEC17FD0761F480818D
:100B80009181840F951F0296E90199838883828160
:100B900093819B838A83E0E0F0E012968D919C9193
:100BA0001397009719F0FD01DC01F7CF8D919C910F
:100BB00011979D012E5F3F4F820F931F2091CA0115
:100BC0003091CB012817390769F4309729F4109236
:100BD000CD011092CC0102C013821282B093CB01DE
:100BE000A093CA01DF91CF910895A0E0B0E0EBEFB0
:100BF000F5E00C949B04EC01009721F4CB010E94DA
:100C0000D404B4C0FC01E60FF71F9C012250310947
:100C1000E217F30708F4A8C0D9010D911C911197B0
:100C200006171707B0F00530110508F49BC0C8017E
:100C300004978617970708F495C002501109061B00
:100C4000170B019311936D937C93CF010E946C0558
:100C500089C05B01A01AB10A4C01800E911EA091BF
:100C6000CC01B091CD01612C712CE12CF12C1097AD
:100C700009F446C08D919C911197A815B905B1F55D
:100C80006C0142E0C40ED11CCA14DB0478F14C01A3
:100C90008A189B08640142E0C40ED11C1296BC90D5
:100CA00012971396AC91B5E0CB16D10440F0B28206
:100CB000A38391828082D9016D937C9309C00E5FDA
:100CC0001F4F800F911FF90191838083EB2DFA2F25
:100CD000E114F10431F0D7011396FC93EE931297CF
:100CE00041C0F093CD01E093CC013CC06816790679
:100CF00008F43C017D0112960D90BC91A02DB7CF58
:100D00008091CA019091CB0188169906E1F466168C
:100D10007706C8F48091000190910101009741F499
:100D20008DB79EB74091040150910501841B950B2E
:100D3000E817F907C8F4F093CB01E093CA01F90171
:100D4000718360830FC0CB010E94D4047C010097A3
:100D500059F0A801BE010E94C006CE010E946C0598
:100D6000C70104C0CE0102C080E090E0CDB7DEB77D
:100D7000EEE00C94B70481E090E0F8940C94D00677
:100D8000FB01DC0102C001900D9241505040D8F7A8
:100D90000895FB01DC0101900D920020E1F7089518
:040DA000F894FFCFF5
:100DA4000000CE018000000000004801B100DF0017
:100DB40095011001EE0002015365C3B1616C3A0064
:040DC4000D0A000014
:00000001FF
