:100000000C9462000C948A000C948A000C948A0070
:100010000C948A000C948A000C948A000C948A0038
:100020000C948A000C948A000C948A000C948A0028
:100030000C948A000C948A000C948A000C948A0018
:100040000C9422020C948A000C9492020C946C0280
:100050000C948A000C948A000C948A000C948A00F8
:100060000C948A000C948A000000000024002700F1
:100070002A000000000023002600290000000000E4
:10008000250028002B0004040404040404040202D4
:100090000202020203030303030301020408102007
:1000A0004080010204081020010204081020000012
:1000B0000008000201000003040700000000000027
:1000C0000000800411241FBECFEFD8E0DEBFCDBFFB
:1000D00011E0A0E0B1E0E8E0FAE002C005900D9286
:1000E000A432B107D9F721E0A4E2B1E001C01D922A
:1000F000AA3CB207E1F710E0C2E6D0E004C02197C5
:10010000FE010E94F704C136D107C9F70E94090316
:100110000C9402050C94000090E0FC01E255FF4FA6
:100120002491FC01E656FF4F3491FC01EA57FF4F42
:10013000E491EE2309F43CC0222339F1233091F0FD
:1001400038F42130A9F0223001F584B58F7D12C03A
:10015000273091F02830A1F02430B9F4809180004C
:100160008F7D03C0809180008F77809380000DC0C9
:1001700084B58F7784BD09C08091B0008F7703C0AC
:100180008091B0008F7D8093B000F0E0EE0FFF1FF4
:10019000E458FF4FA591B4919FB7F894611104C042
:1001A0008C913095382302C0EC913E2B3C939FBF3D
:1001B00008953FB7F8948091290190912A01A09168
:1001C0002B01B0912C0126B5A89B05C02F3F19F03B
:1001D0000196A11DB11D3FBFBA2FA92F982F8827C7
:1001E000820F911DA11DB11DBC01CD0142E0660F22
:1001F000771F881F991F4A95D1F70895CF92DF92F4
:10020000EF92FF920F931F93CF93DF936C017A01CC
:100210008B01C0E0D0E0CE15DF0581F0D8016D91F3
:100220008D01D601ED91FC910190F081E02DC60188
:100230000995892B11F02196EECF7E01C701DF9140
:10024000CF911F910F91FF90EF90DF90CF90089585
:10025000089580E090E00895FC01538D448D252F92
:1002600030E0842F90E0821B930B541710F0CF9650
:10027000089501970895FC01918D828D981761F082
:10028000828DDF01A80FB11D5D968C91928D9F5FCD
:100290009F73928F90E008958FEF9FEF0895FC0178
:1002A000918D828D981731F0828DE80FF11D858D2B
:1002B00090E008958FEF9FEF0895FC01918D228DBE
:1002C000892F90E0805C9F4F821B91098F73992743
:1002D00008958DE291E00E945D0121E0892B09F4EF
:1002E00020E0822F0895FC01848DDF01A80FB11D4D
:1002F000A35ABF4F2C91848D90E001968F7399275C
:10030000848FA689B7892C93A089B1898C91837039
:1003100080648C93938D848D981306C00288F38932
:10032000E02D80818F7D80830895EF92FF920F935F
:100330001F93CF93DF93EC0181E0888F9B8D8C8D91
:10034000981305C0E889F989808185FD26C0F62EBD
:100350000B8D10E00F5F1F4F0F731127E02E8C8D58
:10036000E8120CC00FB607FCFACFE889F989808142
:1003700085FFF5CFCE010E947301F1CF8B8DFE0179
:10038000E80FF11DE35AFF4FF0829FB7F8940B8FEF
:10039000EA89FB89808180620AC09FB7F894EE8960
:1003A000FF896083E889F989808183708064808314
:1003B0009FBF81E090E0DF91CF911F910F91FF905F
:1003C000EF900895CF93DF93EC01888D8823C9F0D7
:1003D000EA89FB89808185FD05C0A889B9898C914E
:1003E00086FD0FC00FB607FCF5CF808185FFF2CFE9
:1003F000A889B9898C9185FFEDCFCE010E94730148
:10040000E7CFDF91CF91089580E090E0892B29F02C
:100410000E94690181110C9400000895009769F011
:10042000FC0101900020E9F73197AF01481B590BFF
:10043000BC018DE291E00C94FE0080E090E0089514
:100440000E94FD041F920F920FB60F9211242F935A
:100450003F938F939F93AF93BF938091250190918A
:100460002601A0912701B09128013091240123E0B9
:10047000230F2D3720F40196A11DB11D05C026E8DC
:10048000230F0296A11DB11D209324018093250105
:1004900090932601A0932701B09328018091290110
:1004A00090912A01A0912B01B0912C010196A11DE0
:1004B000B11D8093290190932A01A0932B01B09341
:1004C0002C01BF91AF919F918F913F912F910F90F0
:1004D0000FBE0F901F9018951F920F920FB60F929C
:1004E00011242F933F934F935F936F937F938F9339
:1004F0009F93AF93BF93EF93FF938DE291E00E94A0
:100500007301FF91EF91BF91AF919F918F917F9177
:100510006F915F914F913F912F910F900FBE0F9070
:100520001F9018951F920F920FB60F9211242F93C0
:100530008F939F93EF93FF93E0913D01F0913E01E4
:100540008081E0914301F091440182FD12C09081CD
:10055000809146018F5F8F7320914701821751F080
:10056000E0914601F0E0E35DFE4F958F80934601F8
:1005700001C08081FF91EF919F918F912F910F90FA
:100580000FBE0F901F901895CF92DF92EF92FF92BF
:100590000F931F93E82FF92F05C00150110921096E
:1005A000310961F1908196239417B9F305C0015088
:1005B00011092109310911F1908196239413F7CF84
:1005C000C12CD12CE12CF12C0AC08FEFC81AD80A0B
:1005D000E80AF80A0C151D052E053F0579F0808103
:1005E0008623841791F36C2D7D2D8E2D9F2D1F91C9
:1005F0000F91FF90EF90DF90CF90089560E070E052
:1006000080E090E01F910F91FF90EF90DF90CF90EE
:100610000895CF93DF93CDB7DEB7A1970FB6F894C7
:10062000DEBF0FBECDBF789484B5826084BD84B533
:10063000816084BD85B5826085BD85B5816085BDDD
:1006400080916E00816080936E0010928100809195
:10065000810082608093810080918100816080931D
:100660008100809180008160809380008091B10042
:1006700084608093B1008091B00081608093B0006D
:1006800080917A00846080937A0080917A00826001
:1006900080937A0080917A00816080937A008091C3
:1006A0007A00806880937A001092C100E0913D0149
:1006B000F0913E0182E08083E0913901F0913A01AE
:1006C0001082E0913B01F0913C018FEC808310920D
:1006D0004501E0914101F091420186E08083E09183
:1006E0003F01F0914001808180618083E0913F0172
:1006F000F0914001808188608083E0913F01F0911A
:100700004001808180688083E0913F01F091400149
:1007100080818F7D8083E6EAF0E02491E2E9F0E0D9
:100720008491882399F090E0880F991FFC01E85983
:10073000FF4FA591B491FC01E458FF4F859194912E
:100740008FB7F894EC91E22BEC938FBFE7EAF0E0DF
:100750002491E3E9F0E084918823C9F090E0880FC8
:10076000991FFC01E859FF4F45915491FC01E45851
:10077000FF4FA591B4919FB7F894FA01808120951D
:10078000822380838C91E22FE823EC939FBF23E0A8
:10079000222E312C3AE0832E912CA12CB12C60E03A
:1007A0008CE00E948C00C1010197F1F761E08CE0C0
:1007B0000E948C0083E290E00197F1F760E08CE00A
:1007C0000E948C00E7EAF0E06491E3E9F0E08491B4
:1007D000E82FF0E0EE0FFF1FEE58FF4F8591949148
:1007E00000E412E42FE030E0462F0E94C4026115BD
:1007F00071058105910539F0DC01CB010196A11D40
:10080000B11DBF7003C080E090E0DC016AE370E0DE
:100810000E94AD047B0182E191E00E940E0227015B
:100820000F2C000C66087708F7FE20C06DE28DE201
:1008300091E00E94950122273327A9012419350947
:100840004609570919A2CE0181967C01CA01B90156
:10085000A50194010E94C104605DF70162937F01CC
:10086000211531054105510589F715C0A3019201F4
:1008700019A2CE0181967C01CA01B901A50194019A
:100880000E94C104605DF70162937F01211531056B
:100890004105510589F7C7010E940E028DE191E0E3
:1008A0000E940E0281E291E00E940E020E94D90095
:1008B0002B013C0184EFC82EDD24D394E12CF12CD4
:1008C0000E94D900DC01CB0184199509A609B7095A
:1008D000883E9340A105B10598F3F1E0CF1AD10805
:1008E000E108F10828EE420E23E0521E611C711C43
:1008F000C114D104E104F10419F70E9404024FCF9E
:10090000EDE2F1E01382128288EE93E0A0E0B0E025
:1009100084839583A683B78384E091E09183808369
:1009200085EC90E09587848784EC90E097878687B4
:1009300080EC90E0918B808B81EC90E0938B828BAC
:1009400082EC90E0958B848B86EC90E0978B868B85
:10095000118E128E138E148E089597FB072E16F4A7
:10096000009407D077FD09D00E94E30407FC05D06E
:100970003EF4909581959F4F0895709561957F4FB6
:100980000895A1E21A2EAA1BBB1BFD010DC0AA1FD0
:10099000BB1FEE1FFF1FA217B307E407F50720F0E8
:1009A000A21BB30BE40BF50B661F771F881F991F63
:1009B0001A9469F760957095809590959B01AC01AC
:1009C000BD01CF010895AA1BBB1B51E107C0AA1F9F
:1009D000BB1FA617B70710F0A61BB70B881F991FE0
:1009E0005A95A9F780959095BC01CD010895EE0F19
:1009F000FF1F0590F491E02D099481E090E0F894B8
:080A00000C940205F894FFCFED
:100A0800000000009501FE002C01E2015D013B01A0
:100A18004F0144697374616E6369613A0020636DC4
:040A2800000D0A00B3
:00000001FF
