:100000000C94DF000C9407010C9407010C94070179
:100010000C9407010C9407010C9407010C94070140
:100020000C9407010C9407010C9407010C94070130
:100030000C9407010C9407010C9407010C94070120
:100040000C94A6040C9407010C9416050C94F0046F
:100050000C9407010C9407010C9407010C94070100
:100060000C9407010C94070100407A10F35A00A089
:10007000724E18090010A5D4E80000E87648170071
:1000800000E40B54020000CA9A3B000000E1F505B1
:10009000000080969800000040420F000000A086FB
:1000A00001000000102700000000E803000000002D
:1000B0006400000000000A000000000001000000D1
:1000C00000002C76D888DC674F0823DFC1DFAE59EB
:1000D000E1B1B796E5E3E453C63AE651997696E87E
:1000E000E6C28426EB898C9B62ED407C6FFCEFBC02
:1000F0009C9F40F2BAA56FA5F490055A2AF75C932D
:100100006B6CF9676DC11BFCE0E40D47FEF520E662
:10011000B500D0ED902E0300943577050080841E45
:10012000080000204E0A000000C80C333333330FA0
:10013000986E12831141EF8D2114893BE65516CF3D
:10014000FEE6DB18D1844B381BF77C1D901DA4BB49
:10015000E424203284725E228100C9F124ECA1E5FE
:100160003D2700000000240027002A0000000000B6
:10017000250028002B000000000023002600290095
:10018000040404040404040402020202020203033D
:100190000303030301020408102040800102040845
:1001A00010200102040810200000000800020100D5
:1001B00000030407000000000000000048051124AF
:1001C0001FBECFEFD8E0DEBFCDBF21E0AEE3B1E090
:1001D00001C01D92AA3FB207E1F711E0A0E0B1E033
:1001E000E4E2FBE102C005900D92AE33B107D9F70E
:1001F00010E0CFEDD0E004C02197FE010E948E0BED
:10020000CE3DD107C9F70E947F050C94900D0C9448
:100210000000833081F028F4813099F08230A1F021
:1002200008958730A9F08830B9F08430D1F48091F6
:1002300080008F7D03C0809180008F778093800045
:10024000089584B58F7702C084B58F7D84BD0895ED
:100250008091B0008F7703C08091B0008F7D809334
:10026000B0000895CF93DF93282F30E0F901E855CF
:10027000FE4F8491F901EC56FE4FD491F901E058FC
:10028000FE4FC491CC2391F081110E940901EC2F03
:10029000F0E0EE0FFF1FEA58FE4FA591B491EC91EC
:1002A000ED2381E090E021F480E002C080E090E066
:1002B000DF91CF9108951F93CF93DF93282F30E0E4
:1002C000F901E855FE4F8491F901EC56FE4FD491A7
:1002D000F901E058FE4FC491CC23C1F0162F8111D3
:1002E0000E940901EC2FF0E0EE0FFF1FE459FE4FD2
:1002F000A591B4919FB7F894111104C08C91D09539
:10030000D82302C0EC91DE2BDC939FBFDF91CF910D
:100310001F910895CF93DF9390E0FC01EC56FE4FC0
:100320002491FC01E058FE4F8491882361F190E014
:10033000880F991FFC01EE59FE4FC591D491FC0125
:10034000E459FE4FA591B491611109C09FB7F8948B
:100350008881209582238883EC912E230BC0623004
:1003600061F49FB7F8948881322F30958323888376
:10037000EC912E2B2C939FBF06C08FB7F894E88189
:100380002E2B28838FBFDF91CF9108953FB7F8942C
:100390008091430190914401A0914501B0914601A3
:1003A00026B5A89B05C02F3F19F00196A11DB11DD0
:1003B0003FBFBA2FA92F982F8827820F911DA11D0B
:1003C000B11DBC01CD0142E0660F771F881F991F48
:1003D0004A95D1F708958F929F92AF92BF92CF9294
:1003E000DF92EF92FF926B017C010E94C6014B01EC
:1003F0005C01C114D104E104F104F1F00E94C601D2
:10040000DC01CB0188199909AA09BB09883E9340F0
:10041000A105B10570F321E0C21AD108E108F10885
:1004200088EE880E83E0981EA11CB11CC114D10473
:10043000E104F10419F7DDCFFF90EF90DF90CF904A
:10044000BF90AF909F908F900895EF92FF921F936F
:10045000CF93DF9361E08091EE010E945B016AEF30
:1004600070E080E090E00E94EB012FB7F89480915B
:10047000470190914801A0914901B0914A012FBFD5
:100480004091F1015091F2016091F3017091F401FA
:1004900084179507A607B70740F41092F101109250
:1004A000F2011092F3011092F4012091F501211153
:1004B00013C04091F1015091F2016091F3017091EC
:1004C000F401841B950BA60BB70B803D9740A1054B
:1004D000B10510F481E087C01092F5012FB7F894B0
:1004E0008091470190914801A0914901B0914A0142
:1004F0002FBF8093F1019093F201A093F301B09389
:10050000F4011092EC011092EB011092EA011092AA
:10051000E9011092E80161E08091EE010E948A01F8
:1005200060E08091EE010E945B0164E170E080E098
:1005300090E00E94EB01F89461E08091EE010E944E
:100540005B018BE990E00197F1F760E08091EE01AB
:100550000E948A0110E081E0C0E0D0E0E82EF12C9A
:100560008091EE010E9432018E159F0519F4DF5F24
:10057000DF3FB1F78091EE010E943201DF3FC1F011
:10058000C43098F0C0FD11C0E12FE695E695E695E0
:10059000F0E0E851FE4F9081990F90832091F00197
:1005A0002D1710F4916090831F5FCF5FC535A9F6BA
:1005B00078941832B8F02091EC0130E04091E801D5
:1005C0008091E90190E0840F911D4091EA01840F30
:1005D000911D4091EB01840F911D99272817390730
:1005E00009F478CF80E0DF91CF911F91FF90EF90D9
:1005F0000895CF92DF92EF92FF920F931F93CF93C4
:10060000DF936C017A018B01C0E0D0E0CE15DF05ED
:1006100081F0D8016D918D01D601ED91FC91019091
:10062000F081E02DC6010995892B11F02196EECFBE
:100630007E01C701DF91CF911F910F91FF90EF9045
:10064000DF90CF900895089580E090E00895FC0138
:10065000538D448D252F30E0842F90E0821B930B27
:10066000541710F0CF96089501970895FC01918DCD
:10067000828D981761F0828DDF01A80FB11D5D9604
:100680008C91928D9F5F9F73928F90E008958FEF72
:100690009FEF0895FC01918D828D981731F0828D26
:1006A000E80FF11D858D90E008958FEF9FEF08957D
:1006B000FC01918D228D892F90E0805C9F4F821BE1
:1006C00091098F73992708958BE491E00E94580354
:1006D00021E0892B09F420E0822F0895FC01848D0C
:1006E000DF01A80FB11DA35ABF4F2C91848D90E05C
:1006F00001968F739927848FA689B7892C93A08937
:10070000B1898C91837080648C93938D848D9813C0
:1007100006C00288F389E02D80818F7D8083089553
:10072000EF92FF920F931F93CF93DF93EC0181E041
:10073000888F9B8D8C8D981305C0E889F9898081FD
:1007400085FD26C0F62E0B8D10E00F5F1F4F0F7337
:100750001127E02E8C8DE8120CC00FB607FCFACFE3
:10076000E889F989808185FFF5CFCE010E946E036B
:10077000F1CF8B8DFE01E80FF11DE35AFF4FF082A0
:100780009FB7F8940B8FEA89FB89808180620AC049
:100790009FB7F894EE89FF896083E889F9898081A1
:1007A0008370806480839FBF81E090E0DF91CF9170
:1007B0001F910F91FF90EF900895CF93DF93EC017D
:1007C000888D8823C9F0EA89FB89808185FD05C071
:1007D000A889B9898C9186FD0FC00FB607FCF5CFAB
:1007E000808185FFF2CFA889B9898C9185FFEDCFF3
:1007F000CE010E946E03E7CFDF91CF91089580E094
:1008000090E0892B29F00E94640381110C94000070
:10081000089549E050E068E171E08BE491E00C94C8
:10082000F902CF93DF93EC0188819981009711F051
:100830000E942C0C198218821D821C821B821A8233
:10084000DF91CF9108950E947B0D0F931F93CF935B
:10085000DF93EC0188819981009729F02A813B81FF
:100860002617370788F48B016F5F7F4F0E94B50C06
:10087000009761F0998388831B830A832C813D81D3
:10088000232B11F4FC01108281E001C080E0DF9194
:10089000CF911F910F910895EF92FF920F931F93A5
:1008A000CF93DF938C017B016115710569F0FB012A
:1008B00001900020E9F73197EF01C61BD70BBE016D
:1008C0000E942504811104C0C8010E94110408C0BF
:1008D000F801D583C483B701808191810E94890D7D
:1008E000C801DF91CF911F910F91FF90EF90089574
:1008F000EF92FF920F931F93CF93DF9361157105D2
:1009000011F480E01CC041155105C1F07B01EC01E0
:100910008C819D818A01080F191FB801CE010E94A8
:100920002504882371F3288139818C819D81B70149
:10093000820F931F0E94890D1D830C8381E0DF913C
:10094000CF911F910F91FF90EF9008951F920F92FA
:100950000FB60F9211242F933F938F939F93AF93D2
:10096000BF938091470190914801A0914901B091B6
:100970004A013091420123E0230F2D3720F40196E4
:10098000A11DB11D05C026E8230F0296A11DB11DB2
:10099000209342018093470190934801A09349011D
:1009A000B0934A018091430190914401A091450187
:1009B000B09146010196A11DB11D80934301909312
:1009C0004401A0934501B0934601BF91AF919F911F
:1009D0008F913F912F910F900FBE0F901F90189500
:1009E0001F920F920FB60F9211242F933F934F93A4
:1009F0005F936F937F938F939F93AF93BF93EF9387
:100A0000FF938BE491E00E946E03FF91EF91BF9101
:100A1000AF919F918F917F916F915F914F913F9196
:100A20002F910F900FBE0F901F9018951F920F924D
:100A30000FB60F9211242F938F939F93EF93FF93F1
:100A4000E0915B01F0915C018081E0916101F091A6
:100A5000620182FD12C09081809164018F5F8F736B
:100A600020916501821751F0E0916401F0E0E55BAF
:100A7000FE4F958F8093640101C08081FF91EF91BB
:100A80009F918F912F910F900FBE0F901F901895EF
:100A9000EBE4F1E01382128288EE93E0A0E0B0E094
:100AA00084839583A683B7838AE091E091838083D2
:100AB00085EC90E09587848784EC90E09787868723
:100AC00080EC90E0918B808B81EC90E0938B828B1B
:100AD00082EC90E0958B848B86EC90E0978B868BF4
:100AE000118E128E138E148EE8EEF1E082E0868372
:100AF0008BE0878386E0808781E085870895CF93A8
:100B0000DF93CDB7DEB7AD970FB6F894DEBF0FBE5B
:100B1000CDBF789484B5826084BD84B5816084BD86
:100B200085B5826085BD85B5816085BD80916E008B
:100B3000816080936E0010928100809181008260BC
:100B400080938100809181008160809381008091F9
:100B500080008160809380008091B10084608093E8
:100B6000B1008091B00081608093B00080917A00E4
:100B7000846080937A0080917A00826080937A000A
:100B800080917A00816080937A0080917A008068F9
:100B900080937A001092C100E0915B01F0915C01BA
:100BA00082E08083E0915701F09158011082E0913A
:100BB0005901F0915A018FEC808310926301E0910A
:100BC0005F01F091600186E08083E0915D01F0912A
:100BD0005E01808180618083E0915D01F0915E0122
:100BE000808188608083E0915D01F0915E01808169
:100BF00080688083E0915D01F0915E0180818F7D4E
:100C0000808360E08091EE010E948A0161E0809122
:100C1000EE010E945B011092F1011092F20110921C
:100C2000F3011092F4010E942502882389F180913A
:100C3000EF018B3029F160F18551823048F56091E8
:100C4000E80170E080E090E00E947D0920E030E063
:100C500040E853E40E94BA096B017C016091E9010C
:100C600070E080E090E00E947F09A70196010E9459
:100C7000B00A20E030E040E251E40E941C0B0EC0BC
:100C80006091E80170E080E090E00E947D0906C07C
:100C90000E94090460E070E080EC9FE760933E01F1
:100CA00070933F0180934001909341010E9425027F
:100CB0008823B9F18091EF018B3029F090F18551B3
:100CC000823048F02EC06091EA0170E080E090E050
:100CD0000E947D092CC01091EA01612F6F7770E0AE
:100CE00080E090E00E947F0920E030E040E853E49B
:100CF0000E94BA096B017C016091EB0170E080E019
:100D000090E00E947F09A70196010E94B00A20E0AE
:100D100030E040E251E40E941C0B17FF08C09058DD
:100D200006C00E94090460E070E080EC9FE71BA20F
:100D30001AA21DA21CA21FA21EA28E010F5F1F4F8E
:100D400022E044E00E942B07BC01CE0182960E9463
:100D50004C0460913E0170913F018091400190915F
:100D6000410119A618A61BA61AA61DA61CA622E0BC
:100D700044E00E942B07BC01CE0188960E944C04DF
:100D80001A8219821C821B821E821D8269E070E019
:100D9000C8010E942504811104C0C8010E941104E9
:100DA0000AC089E090E09E838D8362E271E08981D0
:100DB0009A810E94890D4CA55DA568A579A5CE01F3
:100DC00001960E947804811104C0CE0101960E9410
:100DD00011044DE050E06CE271E0CE0101960E94FA
:100DE0007804882399F14EA15FA16AA17BA1CE016D
:100DF00001960E947804811104C0CE0101960E94E0
:100E000011044D815E8169817A818BE491E00E94B9
:100E1000F90242E050E06AE371E08BE491E00E9465
:100E2000F90289819A810E942C0C88A599A50E94BB
:100E30002C0C8AA19BA10E942C0C60ED77E080E035
:100E400090E00E94EB010E94FF03EDCECE010196DF
:100E50000E941104C8CFEF920F931F93CF93DF939B
:100E6000E80147FD02C034E001C034E1042E000C6B
:100E7000550B57FF03C0519541955109E32E022FA1
:100E8000242FAE010E944B07CE01DF91CF911F911D
:100E90000F91EF900895A9E0B0E0E1E5F7E00C9440
:100EA0007E0A6A01122FB02E2BE3201720F0FF24B8
:100EB000F394F00E02C02CE3F22E0F2D27E0AE01CA
:100EC0004F5F5F4F0E94A508BC014981842F897044
:100ED000813031F0E1FC06C0E0FE06C090E205C0C2
:100EE0009DE203C09BE201C090E05E2D507143FF84
:100EF0003CC0911102C083E001C084E0811718F466
:100F0000212F281B01C020E051110BC0F601822FB8
:100F100030E2882319F031938150FBCFC20ED11CEF
:100F200020E0992329F0D6019C93F60131966F01B8
:100F3000C6010396E2FE0AC03EE4D6013C9341E4BA
:100F400011964C93119712963C9306C03EE6F6011B
:100F5000308341E641833283FC01322F40E2332368
:100F600009F442C041933150FACF42FF44C091117D
:100F700002C083E001C084E0811718F4212F281BF0
:100F800001C020E051110BC0F601822F30E288230E
:100F900019F031938150FBCFC20ED11C20E0992370
:100FA00029F0D6019C93F60131966F01C601039694
:100FB000E2FE0BC039E4D6013C933EE411963C932B
:100FC000119736E412963C9307C039E6F601308358
:100FD0003EE6318336E63283FC01322F40E2332392
:100FE00019F041933150FBCFFC01E20FF11D10824B
:100FF0008EEF9FEFA6C021E030E0911102C020E00B
:1010000030E0161617061CF4FB01319602C0E1E031
:10101000F0E02E0F3F1FBB2021F0EB2DF0E03196CA
:1010200002C0E0E0F0E02E0F3F1FE12FF0E02E17AE
:101030003F071CF4121B212F01C020E08E2D887168
:1010400059F4F601822F30E2882319F03193815050
:10105000FBCFC20ED11C20E0992329F0D6019C932E
:10106000F60131966F0151110BC0F601822F90E30A
:10107000882319F091938150FBCFC20ED11C20E040
:101080000F2D060F9A81342F307144FF03C0913326
:1010900009F40150101624F4093018F008E001C0DA
:1010A00001E0AB0177FF02C040E050E0FB01E41B30
:1010B000F50BA1E0B0E0AC0FBD1FEA0FFB1F8EE205
:1010C000A82E4B01801A91080B2D10E01195019567
:1010D00011094F3FBFEF5B0721F4D601AC92119687
:1010E0006D01641775072CF08416950614F4818140
:1010F00001C080E3415051093196D60111967D011E
:101100004017510724F0D6018C936701E2CF641792
:10111000750739F4963320F4953319F4311101C071
:1011200081E3F6018083F701822F90E2882319F092
:1011300091938150FBCFF701E20FF11D108280E007
:1011400090E02996ECE00C949A0A283008F027E009
:101150003327DA01990F311D87FD916000966105F3
:10116000710539F432602E5F3D9330E32A95E1F743
:1011700008959F3F30F080387105610509F03C5FAC
:101180003C5F3D93913008F08068911DDF93CF93D1
:101190001F930F93FF92EF92192F987F9695E92F47
:1011A00096959695E90FFF27EE53FF4F9927332722
:1011B000EE24FF24A701E70105900894079428F482
:1011C000360FE71EF81E491F511D660F771F881F37
:1011D000991F0694A1F70590079428F4E70EF81ECE
:1011E000491F561FC11D770F881F991F661F069440
:1011F000A1F70590079428F4F80E491F561FC71F42
:10120000D11D880F991F661F771F0694A1F70590BF
:10121000079420F4490F561FC71FD81F990F661F48
:10122000771F881F0694A9F784911095177041F0D5
:10123000D695C79557954795F794E7941A95C1F7B2
:10124000E8E6F0E0689415901591359165919591D7
:1012500005907FE27395E118F10A430B560BC90B19
:10126000D009C0F7E10CF11E431F561FC91FD01D46
:101270007EF4703311F48A95E6CFE894015030F093
:10128000080F0AF40027021708F4202F2395022FD5
:101290007A3328F079E37D932A95E9F710C07D939E
:1012A0002A9589F60694979567953795179517941B
:1012B000E118F10A430B560BC90BD00998F023959E
:1012C0007E9173957A3308F070E37C932013B8F71E
:1012D0007E9170617D9330F0839571E37D9370E32F
:1012E0002A95E1F71124EF90FF900F911F91CF9174
:1012F000DF91992787FD90950895E89409C097FBA1
:101300003EF490958095709561957F4F8F4F9F4FDC
:101310009923A9F0F92F96E9BB279395F695879520
:1013200077956795B795F111F8CFFAF4BB0F11F4E3
:1013300060FF1BC06F5F7F4F8F4F9F4F16C088238A
:1013400011F096E911C0772321F09EE8872F762FC0
:1013500005C0662371F096E8862F70E060E02AF001
:101360009A95660F771F881FDAF7880F96958795ED
:1013700097F908950E94CD090C943E0A0E94300A04
:1013800038F00E94370A20F0952311F00C94270AB8
:101390000C942D0A11240C94720A0E944F0A70F3C7
:1013A000959FC1F3950F50E0551F629FF001729F0A
:1013B000BB27F00DB11D639FAA27F00DB11DAA1F19
:1013C000649F6627B00DA11D661F829F2227B00D66
:1013D000A11D621F739FB00DA11D621F839FA00DF1
:1013E000611D221F749F3327A00D611D231F849F41
:1013F000600D211D822F762F6A2F11249F57504098
:101400009AF0F1F088234AF0EE0FFF1FBB1F661F12
:10141000771F881F91505040A9F79E3F510580F0DB
:101420000C94270A0C94720A5F3FE4F3983ED4F3BD
:10143000869577956795B795F795E7959F5FC1F77F
:10144000FE2B880F911D9695879597F9089597F92A
:101450009F6780E870E060E008959FEF80EC08955A
:1014600000240A9416161706180609060895002483
:101470000A9412161306140605060895092E0394FD
:10148000000C11F4882352F0BB0F40F4BF2B11F471
:1014900060FF04C06F5F7F4F8F4F9F4F089557FDD0
:1014A0009058440F551F59F05F3F71F04795880FD2
:1014B00097FB991F61F09F3F79F087950895121669
:1014C00013061406551FF2CF4695F1DF08C0161615
:1014D00017061806991FF1CF8695710561050894C6
:1014E0000895E894BB2766277727CB0197F90895DD
:1014F0002F923F924F925F926F927F928F929F9224
:10150000AF92BF92CF92DF92EF92FF920F931F9311
:10151000CF93DF93CDB7DEB7CA1BDB0B0FB6F894C2
:10152000DEBF0FBECDBF09942A88398848885F8402
:101530006E847D848C849B84AA84B984C884DF8073
:10154000EE80FD800C811B81AA81B981CE0FD11D57
:101550000FB6F894DEBF0FBECDBFED010895505811
:10156000BB27AA270E94C70A0C943E0A0E94300A91
:1015700038F00E94370A20F039F49F3F19F426F41E
:101580000C942D0A0EF4E095E7FB0C94270AE92F42
:101590000E944F0A58F3BA1762077307840795072A
:1015A00020F079F4A6F50C94710A0EF4E0950B2E58
:1015B000BA2FA02D0B01B90190010C01CA01A001A5
:1015C0001124FF27591B99F0593F50F4503E68F100
:1015D0001A16F040A22F232F342F4427585FF3CF41
:1015E000469537952795A795F0405395C9F77EF412
:1015F0001F16BA0B620B730B840BBAF09150A1F05B
:10160000FF0FBB1F661F771F881FC2F70EC0BA0FE0
:10161000621F731F841F48F4879577956795B79568
:10162000F7959E3F08F0B0CF9395880F08F0992763
:10163000EE0F9795879508950E94300B0C943E0A03
:101640000E94370A58F00E94300A40F029F45F3FA8
:1016500029F00C94270A51110C94720A0C942D0A4B
:101660000E944F0A68F39923B1F3552391F3951B18
:10167000550BBB27AA2762177307840738F09F5FB3
:101680005F4F220F331F441FAA1FA9F335D00E2E20
:101690003AF0E0E832D091505040E695001CCAF78D
:1016A0002BD0FE2F29D0660F771F881FBB1F261750
:1016B00037074807AB07B0E809F0BB0B802DBF0127
:1016C000FF2793585F4F3AF09E3F510578F00C94F6
:1016D000270A0C94720A5F3FE4F3983ED4F3869590
:1016E00077956795B795F7959F5FC9F7880F911D17
:1016F0009695879597F90895E1E0660F771F881F03
:10170000BB1F621773078407BA0720F0621B730BB5
:10171000840BBA0BEE1F88F7E0950895EE0FFF1FBC
:101720000590F491E02D09940F931F93CF93DF93CD
:101730008230910510F482E090E0E091F801F091A0
:10174000F90120E030E0A0E0B0E0309719F14081ED
:1017500051810281138148175907C8F084179507F2
:1017600069F4109731F012960C93129713961C930C
:1017700027C00093F8011093F90122C0211531050B
:1017800019F04217530718F49A01BD01EF01DF0168
:10179000F801DBCF21153105F9F0281B390B243076
:1017A000310580F48A819B816115710521F0FB016F
:1017B0009383828304C09093F9018093F801FE0122
:1017C000329644C0FE01E20FF31F819391932250A1
:1017D0003109398328833AC02091F6013091F7010D
:1017E000232B41F420910201309103013093F70142
:1017F0002093F6012091000130910101211531055E
:1018000041F42DB73EB74091040150910501241BCE
:10181000350BE091F601F091F701E217F307A0F420
:101820002E1B3F0B2817390778F0AC014E5F5F4F36
:101830002417350748F04E0F5F1F5093F701409370
:10184000F6018193919302C0E0E0F0E0CF01DF91D7
:10185000CF911F910F910895CF93DF93009709F4D3
:1018600081C0FC01329713821282A091F801B091DD
:10187000F901109781F420813181820F931F20910B
:10188000F6013091F7012817390751F5F093F70168
:10189000E093F60167C0ED0120E030E0CE17DF07EE
:1018A00040F44A815B819E0141155105F1F0EA0146
:1018B000F5CFD383C28340815181840F951FC81710
:1018C000D90759F488819981840F951F02969183D5
:1018D00080838A819B81938382832115310529F43A
:1018E000F093F901E093F8013DC0E901FB83EA833D
:1018F00049915991C40FD51FEC17FD0761F4808100
:101900009181840F951F0296E901998388838281D2
:1019100093819B838A83E0E0F0E012968D919C9105
:101920001397009719F0FD01DC01F7CF8D919C9181
:1019300011979D012E5F3F4F820F931F2091F6015B
:101940003091F7012817390769F4309729F410927C
:10195000F9011092F80102C013821282B093F701CC
:10196000A093F601DF91CF910895A0E0B0E0EBEBFA
:10197000FCE00C947C0AEC01009721F4CB010E945E
:10198000940BB4C0FC01E60FF71F9C0122503109F3
:10199000E217F30708F4A8C0D9010D911C91119723
:1019A00006171707B0F00530110508F49BC0C801F1
:1019B00004978617970708F495C002501109061B73
:1019C000170B019311936D937C93CF010E942C0C04
:1019D00089C05B01A01AB10A4C01800E911EA09132
:1019E000F801B091F901612C712CE12CF12C1097C8
:1019F00009F446C08D919C911197A815B905B1F5D0
:101A00006C0142E0C40ED11CCA14DB0478F14C0115
:101A10008A189B08640142E0C40ED11C1296BC9047
:101A200012971396AC91B5E0CB16D10440F0B28278
:101A3000A38391828082D9016D937C9309C00E5F4C
:101A40001F4F800F911FF90191838083EB2DFA2F97
:101A5000E114F10431F0D7011396FC93EE93129741
:101A600041C0F093F901E093F8013CC06816790693
:101A700008F43C017D0112960D90BC91A02DB7CFCA
:101A80008091F6019091F70188169906E1F46616A7
:101A90007706C8F48091000190910101009741F40C
:101AA0008DB79EB74091040150910501841B950BA1
:101AB000E817F907C8F4F093F701E093F601F9018C
:101AC000718360830FC0CB010E94940B7C0100974F
:101AD00059F0A801BE010E94800DCE010E942C0C7D
:101AE000C70104C0CE0102C080E090E0CDB7DEB7F0
:101AF000EEE00C94980A81E090E0F8940C94900D3C
:101B0000FB01DC0102C001900D9241505040D8F71A
:101B10000895FB01DC0101900D920020E1F708958A
:041B2000F894FFCF67
:101B24000000FA018000000000009003F90227037E
:101B3400DD03580336034A03526561642066616914
:101B44006C0048756D656461643A200054656D707D
:0E1B5400657261747572613A20000D0A00001E
:00000001FF
