:100000000C9483000C94B4000C94B4000C94B400D1
:100010000C94B4000C94B4000C94B4000C94B40090
:100020000C94B4000C94B4000C94B4000C94B40080
:100030000C94B4000C94B4000C94B4000C94B40070
:100040000C94B4000C94B4000C94B4000C94B40060
:100050000C94B4000C94B4000C94B4000C946D0394
:100060000C94B4000C9437030C940D030C94B4005E
:100070000C94B4000C94B4000C94B4000C94B40030
:100080000C94B4000C94B4000C94B4000C94B40020
:100090000C94B4000C94B4000C94B4000C94B40010
:1000A0000C94B4000C94B4000C94B4000C94B40000
:1000B0000C94B4000C94B4000C94B4000C94B400F0
:1000C0000C94B4000C94B4000C94B4000C94B400E0
:1000D0000C94B4000C94B4000C94B4000C94B400D0
:1000E0000C94B4000C9442050C9406010C94B600D8
:1000F0000C94E3000C944C010C9414010C94F20049
:100100000C949901420511241FBECFEFD1E2DEBF4E
:10011000CDBF00E00CBF12E0A0E0B2E0E6E3F0E10A
:1001200000E00BBF02C007900D92A232B107D9F7D1
:1001300022E0A2E2B2E001C01D92A23DB207E1F7C7
:1001400010E0C3E8D0E000E006C021970109802F4D
:10015000FE010E94FB05C238D10780E00807A9F71D
:100160000E94B7030C9419080C940000AF92BF9240
:10017000CF92DF92EF92FF920F931F93CF93DF9373
:100180006C017B018B01040F151FEB015E01AE18A2
:10019000BF08C017D10759F06991D601ED91FC91C4
:1001A0000190F081E02DC6011995892B79F7C501E1
:1001B000DF91CF911F910F91FF90EF90DF90CF9043
:1001C000BF90AF900895FC01538D448D252F30E0F2
:1001D000842F90E0821B930B541710F0CF96089554
:1001E00001970895FC01918D828D981761F0A28D81
:1001F000AE0FBF2FB11D5D968C91928D9F5F9F7347
:10020000928F90E008958FEF9FEF0895FC01918DFC
:10021000828D981731F0828DE80FF11D858D90E069
:1002200008958FEF9FEF0895FC01918D228D892F06
:1002300090E0805C9F4F821B91098F7399270895EE
:100240008BE292E00E94140121E0892B09F420E066
:10025000822F0895FC01A48DA80FB92FB11DA35AB8
:10026000BF4F2C91848D90E001968F739927848FD6
:10027000A689B7892C93A089B1898C9183708064F9
:100280008C93938D848D981306C00288F389E02D9A
:1002900080818F7D80830895EF92FF920F931F934B
:1002A000CF93DF93EC0181E0888F9B8D8C8D981329
:1002B0001AC0E889F989808185FF15C09FB7F89435
:1002C000EE89FF896083E889F98980818370806481
:1002D00080839FBF81E090E0DF91CF911F910F91CC
:1002E000FF90EF900895F62E0B8D10E00F5F1F4FDB
:1002F0000F731127E02E8C8D8E110CC00FB607FCEA
:10030000FACFE889F989808185FFF5CFCE010E9477
:100310002A01F1CFEB8DEC0FFD2FF11DE35AFF4FBA
:10032000F0829FB7F8940B8FEA89FB898081806205
:10033000CFCFCF93DF93EC01888D8823B9F0AA89C2
:10034000BB89E889F9898C9185FD03C0808186FD90
:100350000DC00FB607FCF7CF8C9185FFF2CF8081DF
:1003600085FFEDCFCE010E942A01E9CFDF91CF9129
:10037000089580E090E0892B29F00E9420018111EE
:100380000E94000080E090E0892B49F080E090E03E
:10039000892B29F00E94000081110E94000080E05A
:1003A00090E0892B49F080E090E0892B29F00E94B1
:1003B000000081110E94000080E090E0892B49F04C
:1003C00080E090E0892B29F00E94000081110C94BC
:1003D00000000895863308F0865320917B00982F03
:1003E0009870277F922B90937B0087708064809316
:1003F0007C0080917A00806480937A0080917A00FA
:1004000086FDFCCF809178009091790008953FB7E8
:10041000F8948091270290912802A0912902B0912E
:100420002A0226B5A89B05C02F3F19F00196A11DF1
:10043000B11D3FBFBA2FA92F982F8827BC01CD012E
:10044000620F711D811D911D42E0660F771F881F8D
:10045000991F4A95D1F708950F931F93CF93DF9378
:10046000EC0188819981009759F02A813B812617F8
:10047000370730F081E0DF91CF911F910F91089500
:100480008B016F5F7F4F0E942807009759F0998377
:1004900088831B830A832C813D81232B59F7FC0120
:1004A0001082E8CF80E0E7CFEF92FF920F931F9387
:1004B000CF93DF936115710541F480E0DF91CF9117
:1004C0001F910F91FF90EF90089541155105B1F0E4
:1004D0007B01EC010C811D81040F151FB8010E94E6
:1004E0002C02882351F3288139818C819D81B701A9
:1004F000820F931F0E9412081D830C8381E0DECFC0
:10050000CF93DF93EC0188819981009711F00E94CD
:100510009F06198218821D821C821B821A82DF911B
:10052000CF910895CF92DF92EF92FF920F931F9396
:10053000CF93DF93CDB7DEB762970FB6F894DEBFE7
:100540000FBECDBF8C01CB01F80111821082138246
:100550001282158214824AE09E012F5F3F4F69018B
:10056000B9010E946F05F60101900020E9F731976B
:100570007F01EC18FD08B701C8010E942C0281110F
:1005800012C0C8010E94800262960FB6F894DEBFC6
:100590000FBECDBFDF91CF911F910F91FF90EF90D4
:1005A000DF90CF900895F801F582E482B601808152
:1005B00091810E941208E8CFCF93DF93EC01FB01F9
:1005C00001900020E9F73197AF01461B570B0E94BD
:1005D0005402811103C0CE010E948002CE01DF913E
:1005E000CF910895CF93DF93EC01FB0144815581B6
:1005F000608171810E945402811103C0CE010E946A
:100600008002CE01DF91CF910895FC01808191811C
:10061000009711F00C949F0608951F920F920FB649
:100620000F9211240BB60F922F933F934F935F932A
:100630006F937F938F939F93AF93BF93EF93FF93AA
:100640008BE292E00E942A01FF91EF91BF91AF915E
:100650009F918F917F916F915F914F913F912F91DA
:100660000F900BBE0F900FBE0F901F9018951F920A
:100670000F920FB60F9211240BB60F922F938F93F8
:100680009F93EF93FF93E0913B02F0913C028081B6
:10069000E0914102F091420282FD1DC09081809163
:1006A00044028F5F8F7320914502821741F0E091E1
:1006B0004402F0E0E55DFD4F958F80934402FF9189
:1006C000EF919F918F912F910F900BBE0F900FBEC6
:1006D0000F901F9018958081F2CF1F920F920FB646
:1006E0000F9211242F933F938F939F93AF93BF93B8
:1006F0008091230290912402A0912502B0912602BC
:100700003091220223E0230F2D3758F50196A11DC9
:10071000B11D209322028093230290932402A09380
:100720002502B09326028091270290912802A09181
:100730002902B0912A020196A11DB11D80932702C2
:1007400090932802A0932902B0932A02BF91AF91FF
:100750009F918F913F912F910F900FBE0F901F90FF
:10076000189526E8230F0296A11DB11DD2CFCF9375
:10077000DF93CDB7DEB768970FB6F894DEBF0FBE34
:10078000CDBF789484B5826084BD84B5816084BD1A
:1007900085B5826085BD85B5816085BD80916E001F
:1007A000816080936E001092810080918100826050
:1007B000809381008091810081608093810080918D
:1007C00080008160809380008091B100846080937C
:1007D000B1008091B00081608093B0008091910061
:1007E000826080939100809191008160809391005C
:1007F000809190008160809390008091A100826040
:100800008093A1008091A10081608093A1008091DC
:10081000A00081608093A00080912101826080937C
:10082000210180912101816080932101809120012B
:1008300081608093200180917A00846080937A00A7
:1008400080917A00826080937A0080917A00816042
:1008500080937A0080917A00806880937A00109269
:10086000C100E0913B02F0913C0282E08083E09184
:100870003702F09138021082E0913902F0913A0289
:100880008FEC808310924302E0913F02F09140028E
:1008900086E08083E0913D02F0913E02808180619C
:1008A0008083E0913D02F0913E02808188608083E8
:1008B000E0913D02F0913E02808180688083E0916A
:1008C0003D02F0913E0280818F7D808384E690E03E
:1008D000A0E0B0E080932F0290933002A093310209
:1008E000B0933202CC24CA9493E0D92EE12CF12C9F
:1008F00086E30E94EA013C0187E30E94EA014C0181
:1009000088E30E94EA015C0124E630E0D3010E9402
:10091000F405A70196010E94A4053093CD0220930F
:10092000CC0224E630E0D4010E94F405A701960130
:100930000E94A4053093CB022093CA0224E630E043
:10094000D5010E94F405A70196010E94A4053093E9
:10095000C9022093C802B901CE0101960E949202F9
:100960006091CA027091CB02CE0107960E9492025A
:100970006091CC027091CD02CE010D960E94920240
:100980001C8A1B8A1E8A1D8A188E1F8A61E070E0ED
:10099000CE0143960E942C02811169C0CE0143967C
:1009A0000E948002BE01635F7F4FCE0143960E948A
:1009B000F2026AE172E00E94DC02BE01695F7F4FD1
:1009C0000E94F2026AE172E00E94DC02BE016F5FE7
:1009D0007F4F0E94F2026CE172E00E94DC02FC0197
:1009E00044815581608171818BE292E00E94B60062
:1009F00042E050E06EE172E08BE292E00E94B600CD
:100A0000CE0143960E940503CE010D960E94050378
:100A1000CE0107960E940503CE0101960E940503B0
:100A20000E9407022B013C0184E6882E912CA12C08
:100A3000B12C0E9407026419750986099709683E5E
:100A4000734081059105A8F3F1E08F1A9108A10880
:100A5000B10828EE420E23E0521E611C711C811465
:100A60009104A104B10429F70E94B90141CF81E0AA
:100A700090E0988F8F8B68E172E08B899C890E944F
:100A8000120890CFEBE2F2E01382128288EE93E03C
:100A9000A0E0B0E084839583A683B7838AE092E0E8
:100AA0009183808385EC90E09587848784EC90E047
:100AB0009787868780EC90E0918B808B81EC90E02B
:100AC000938B828B82EC90E0958B848B86EC90E00C
:100AD000978B868B118E128E138E148E0895BB27E2
:100AE0004A3031F4992322F4BDE2909581959F4FCD
:100AF0000C947B05BB27FB015527AA27880F991F5C
:100B0000AA1FA41710F0A41B83955051B9F7A05D3C
:100B1000AA3308F0A95DA193009779F7B111B193B9
:100B20001192CB010C949405DC01FC01672F7191AB
:100B30007723E1F7329704C07C916D9370836291C3
:100B4000AE17BF07C8F30895052E97FB1EF4009457
:100B50000E94BB0557FD07D00E94C30507FC03D0C8
:100B60004EF40C94BB0550954095309521953F4F20
:100B70004F4F5F4F089590958095709561957F4F89
:100B80008F4F9F4F0895A1E21A2EAA1BBB1BFD0198
:100B90000DC0AA1FBB1FEE1FFF1FA217B307E4075C
:100BA000F50720F0A21BB30BE40BF50B661F771FB4
:100BB000881F991F1A9469F7609570958095909594
:100BC0009B01AC01BD01CF010895A29FB001B39F6D
:100BD000C001A39F700D811D1124911DB29F700D46
:100BE000811D1124911D08950E94E505B7FF089508
:100BF000821B930B0895EE0FFF1F881F8BBF07907A
:100C0000F691E02D19940F931F93CF93DF938230C9
:100C1000910510F482E090E0E091D002F091D102D1
:100C200030E020E0B0E0A0E0309799F421153105E4
:100C300009F44AC0281B390B24303105D8F58A81C4
:100C40009B816115710589F1FB0193838283FE010C
:100C500011C0408151810281138148175907E0F08A
:100C60004817590799F4109761F012960C93129750
:100C700013961C933296CF01DF91CF911F910F9164
:100C800008950093D0021093D102F4CF21153105BD
:100C900051F04217530738F0A901DB019A01BD0159
:100CA000DF01F801C1CFEF01F9CF9093D10280931A
:100CB000D002CDCFFE01E20FF31F8193919322501A
:100CC000310939832883D7CF2091CE023091CF02CA
:100CD000232B41F420910202309103023093CF0282
:100CE0002093CE022091000230910102211531059E
:100CF00041F42DB73EB74091040250910502241BE8
:100D0000350BE091CE02F091CF02E217F307A0F489
:100D10002E1B3F0B2817390778F0AC014E5F5F4F51
:100D20002417350748F04E0F5F1F5093CF024093B2
:100D3000CE02819391939FCFF0E0E0E09CCFCF93E0
:100D4000DF930097E9F0FC01329713821282A091A1
:100D5000D002B091D102ED0130E020E01097A1F473
:100D600020813181820F931F2091CE023091CF02DA
:100D70002817390709F061C0F093CF02E093CE0243
:100D8000DF91CF910895EA01CE17DF07E8F54A8198
:100D90005B819E0141155105B1F7E901FB83EA83AF
:100DA00049915991C40FD51FEC17FD0761F480815B
:100DB00091810296840F951FE9019983888382812E
:100DC00093819B838A83F0E0E0E012968D919C9161
:100DD00013970097B9F52D913C911197CD0102968B
:100DE000820F931F2091CE023091CF02281739072E
:100DF00039F6309751F51092D1021092D002B0938B
:100E0000CF02A093CE02BCCFD383C2834081518155
:100E1000840F951FC817D90761F44E5F5F4F888113
:100E20009981480F591F518340838A819B81938305
:100E300082832115310509F0B0CFF093D102E09300
:100E4000D0029ECFFD01DC01C0CF13821282D7CF2A
:100E50004F925F926F927F928F929F92AF92BF92CA
:100E6000CF92DF92EF92FF920F931F93CF93DF9376
:100E70008C01009799F4CB01DF91CF911F910F91D5
:100E8000FF90EF90DF90CF90BF90AF909F908F90AA
:100E90007F906F905F904F900C940306FC01E60FDB
:100EA000F71F9C0122503109E217F30708F4AEC086
:100EB000D901CD91DC911197C617D70720F1C53024
:100EC000D10578F0CE0104978617970750F0C61B1E
:100ED000D70B2297C193D1936D937C93CF010E943E
:100EE0009F06C801DF91CF911F910F91FF90EF9066
:100EF000DF90CF90BF90AF909F908F907F906F903A
:100F00005F904F9008955B01AC1ABD0A4C018C0EA6
:100F10009D1EA091D002B091D102512C412CF12CF8
:100F2000E12C109731F58091CE029091CF02881577
:100F3000990509F05CC04616570608F058C0809124
:100F4000000290910102009741F48DB79EB7409145
:100F5000040250910502841B950BE817F90708F06D
:100F600055C0F093CF02E093CE02F9017183608304
:100F7000B8CF8D919C91119712966C901297139601
:100F80007C901397A815B90559F56C0142E0C40E81
:100F9000D11CCA14DB0420F1AC014A195B09DA0147
:100FA0001296159780F06282738251834083D90133
:100FB0006D937C93E114F10471F0D7011396FC93C7
:100FC000EE9312978ECF22968C0F9D1FF90191837D
:100FD0008083F301EFCFF093D102E093D00281CF71
:100FE0004816590608F42C017D01D3019ACFCB0194
:100FF0000E9403067C01009749F0AE01B8010E94EF
:101000000908C8010E949F0687016BCF10E000E02D
:1010100068CFFB01DC0102C001900D9241505040AD
:10102000D8F70895FB01DC0101900D920020E1F753
:061030000895F894FFCFC3
:101036000000D2028000000000004C01B600E30070
:1010460099011401F20006014900520046000D0AFA
:02105600000098
:00000001FF
