:100000000C9428010C9459010C9459010C94590139
:100010000C9459010C9459010C9459010C945901F8
:100020000C9459010C9459010C9459010C945901E8
:100030000C9459010C9459010C9459010C945901D8
:100040000C9459010C9459010C9459010C945901C8
:100050000C9459010C9459010C9459010C94DE0331
:100060000C9459010C94A8030C947E030C94590130
:100070000C9459010C9459010C9459010C94590198
:100080000C9459010C9459010C9459010C94590188
:100090000C9459010C9459010C9459010C94590178
:1000A0000C9459010C9459010C9459010C94590168
:1000B0000C9459010C9459010C9459010C94590158
:1000C0000C9459010C9459010C9459010C94590148
:1000D0000C9459010C9459010C9459010C94590138
:1000E0000C9459010C94D6020C9497010C94E502DF
:1000F0000C943E020C94BF020C94F5020C94F10196
:100100000C94FD020C94B9010C9488010C940B051D
:100110000C940B030C9403030C94C4020C94F9028A
:100120000C94EB020C94AB010C94DE020C941103C2
:100130000C9407030C945B010C94E2020C941503DD
:100140000C94EF020C94DA0200000A0B02090C0D69
:100150000E0807030401000000000000000000007A
:10016000000000000000000000000000000000008F
:10017000000000001211100000000000000000004C
:10018000000000000000000000000000000000006F
:100190002200250028002B002E003100340002012F
:1001A0000000050108010B010000210024002700C8
:1001B0002A002D0030003300010100000401070176
:1001C0000A010505050507050808080802020202DC
:1001D0000A0A0808040404040101010101010101E3
:1001E0000303030303030303040707070C0C0C0CAE
:1001F0000C0C0C0C02020202060606060606060697
:100200000B0B0B0B0B0B0B0B010210202008081023
:100210002040102040800201020108040201010276
:10022000040810204080804020100804020180044F
:1002300002018040201008040201080402010102AA
:1002400004081020408001020408102040800B05A3
:1002500011241FBECFEFD1E2DEBFCDBF00E00CBF47
:1002600012E0A0E0B2E0E4E8FAE000E00BBF02C078
:1002700007900D92AE32B107D9F722E0AEE2B2E0BC
:1002800001C01D92A43DB207E1F711E0C8E2D1E040
:1002900000E006C021970109802FFE010E94380569
:1002A000C732D10780E00807A9F70E9428040C9400
:1002B00040050C940000AF92BF92CF92DF92EF9274
:1002C000FF920F931F93CF93DF936C017B018B0100
:1002D000040F151FEB015E01AE18BF08C017D10750
:1002E00059F06991D601ED91FC910190F081E02DDA
:1002F000C6011995892B79F7C501DF91CF911F911F
:100300000F91FF90EF90DF90CF90BF90AF90089546
:10031000FC01538D448D252F30E0842F90E0821B0B
:10032000930B541710F0CF96089501970895FC0190
:10033000918D828D981761F0A28DAE0FBF2FB11DE8
:100340005D968C91928D9F5F9F73928F90E0089540
:100350008FEF9FEF0895FC01918D828D981731F0FA
:10036000828DE80FF11D858D90E008958FEF9FEF4E
:100370000895FC01918D228D892F90E0805C9F4F24
:10038000821B91098F739927089587E392E00E9459
:10039000B90121E0892B09F420E0822F0895FC01A6
:1003A000A48DA80FB92FB11DA35ABF4F2C91848DD6
:1003B00090E001968F739927848FA689B7892C9333
:1003C000A089B1898C91837080648C93938D848D86
:1003D000981306C00288F389E02D80818F7D808389
:1003E0000895EF92FF920F931F93CF93DF93EC0149
:1003F00081E0888F9B8D8C8D98131AC0E889F989CC
:10040000808185FF15C09FB7F894EE89FF896083CE
:10041000E889F98980818370806480839FBF81E04F
:1004200090E0DF91CF911F910F91FF90EF90089591
:10043000F62E0B8D10E00F5F1F4F0F731127E02E6C
:100440008C8D8E110CC00FB607FCFACFE889F989A4
:10045000808185FFF5CFCE010E94CF01F1CFEB8DDA
:10046000EC0FFD2FF11DE35AFF4FF0829FB7F89478
:100470000B8FEA89FB8980818062CFCFCF93DF9396
:10048000EC01888D8823B9F0AA89BB89E889F989AC
:100490008C9185FD03C0808186FD0DC00FB607FCE1
:1004A000F7CF8C9185FFF2CF808185FFEDCFCE0114
:1004B0000E94CF01E9CFDF91CF91089580E090E0D5
:1004C000892B29F00E94C50181110E94000080E063
:1004D00090E0892B49F080E090E0892B29F00E9480
:1004E000000081110E94000080E090E0892B49F01B
:1004F00080E090E0892B29F00E94000081110E9489
:10050000000080E090E0892B49F080E090E0892BAA
:1005100029F00E94000081110C9400000895282FFA
:1005200030E0F901E85BFE4F9491F901E85FFD4F7F
:1005300044912E533E4FF9012491222309F435C0F2
:10054000992311F191509231F8F4E92FF0E08827C6
:10055000E355FD4F8F4F0C943805DE02E202BF02D7
:10056000D602DA02C402E502EB02EF02F502F9025A
:10057000FD0203030703C4020B031103150380915B
:1005800080008F7780938000E22FF0E0EE0FFF1F56
:10059000E257FE4FA591B4918FB7F894EC91611199
:1005A00048C040954E234C938FBF089580918000A2
:1005B0008F7DE8CF80918000877FE4CF84B58F77EF
:1005C00084BDE2CF84B58F7DFBCF8091B0008F7763
:1005D0008093B000D9CF8091B0008F7DF9CF80910A
:1005E00090008F7780939000CFCF809190008F7D87
:1005F000F9CF80919000877FF5CF8091A0008F7711
:100600008093A000C1CF8091A0008F7DF9CF809111
:10061000A000877FF5CF809120018F778093200104
:10062000B3CF809120018F7DF9CF80912001877F0A
:10063000F5CF4E2BB8CF3FB7F8948091330290910D
:100640003402A0913502B091360226B5A89B05C0B0
:100650002F3F19F00196A11DB11D3FBFBA2FA92F41
:10066000982F8827BC01CD01620F711D811D911D3E
:1006700042E0660F771F881F991F4A95D1F70895AA
:100680008F929F92AF92BF92CF92DF92EF92FF92A2
:100690000E941B034B015C0184EFC82EDD24D39420
:1006A000E12CF12C0E941B03681979098A099B0926
:1006B000683E734081059105A8F321E0C21AD10874
:1006C000E108F10888EE880E83E0981EA11CB11C99
:1006D000C114D104E104F10429F7FF90EF90DF90F9
:1006E000CF90BF90AF909F908F90089542E050E0E0
:1006F00062E172E087E392E00C945B011F920F923B
:100700000FB60F9211240BB60F922F933F934F9376
:100710005F936F937F938F939F93AF93BF93EF9369
:10072000FF9387E392E00E94CF01FF91EF91BF9189
:10073000AF919F918F917F916F915F914F913F9179
:100740002F910F900BBE0F900FBE0F901F9018951A
:100750001F920F920FB60F9211240BB60F922F9388
:100760008F939F93EF93FF93E0914702F09148029C
:100770008081E0914D02F0914E0282FD1DC090817A
:10078000809150028F5F8F7320915102821741F048
:10079000E0915002F0E0E95CFD4F958F80935002AC
:1007A000FF91EF919F918F912F910F900BBE0F9022
:1007B0000FBE0F901F9018958081F2CF1F920F925D
:1007C0000FB60F9211242F933F938F939F93AF9364
:1007D000BF9380912F0290913002A0913102B0918D
:1007E000320230912E0223E0230F2D3758F5019667
:1007F000A11DB11D20932E0280932F0290933002F1
:10080000A0933102B093320280913302909134026E
:10081000A0913502B09136020196A11DB11D8093C1
:10082000330290933402A0933502B0933602BF9105
:10083000AF919F918F913F912F910F900FBE0F908D
:100840001F90189526E8230F0296A11DB11DD2CF47
:10085000789484B5826084BD84B5816084BD85B59B
:10086000826085BD85B5816085BD80916E008160A7
:1008700080936E001092810080918100826080934D
:10088000810080918100816080938100809180004F
:100890008160809380008091B10084608093B1007A
:1008A0008091B00081608093B0008091910082605F
:1008B000809391008091910081608093910080915C
:1008C00090008160809390008091A100826080936D
:1008D000A1008091A10081608093A1008091A0007F
:1008E00081608093A000809121018260809321012A
:1008F000809121018160809321018091200181609C
:100900008093200180917A00846080937A008091A6
:100910007A00826080937A0080917A00816080936F
:100920007A0080917A00806880937A001092C100EA
:10093000E4E1F2E02491EEECF1E08491882399F077
:1009400090E0880F991FFC01E855FE4FA591B491E6
:10095000FC01E257FE4F859194918FB7F894EC918A
:10096000E22BEC938FBFE0914702F091480282E0C6
:100970008083E0914302F09144021082E0914502AD
:10098000F09146028FEC808310924F02E0914B026F
:10099000F0914C0286E08083E0914902F0914A0296
:1009A000808180618083E0914902F0914A028081D8
:1009B00088608083E0914902F0914A0280818068DA
:1009C0008083E0914902F0914A0280818F7D80838B
:1009D00061E08CE00E948F024CE050E065E172E043
:1009E00087E392E00E945B010E9476030E9440032D
:1009F00060E08CE00E948F024BE050E062E272E027
:100A000087E392E00E945B010E9476030E9440030C
:100A10000E945E02DDCFE7E3F2E01382128288EEED
:100A200093E0A0E0B0E084839583A683B78384E05D
:100A300092E09183808385EC90E09587848784ECB5
:100A400090E09787868780EC90E0918B808B81EC9B
:100A500090E0938B828B82EC90E0958B848B86EC7C
:100A600090E0978B868B118E128E138E148E0895C4
:100A7000EE0FFF1F881F8BBF0790F691E02D199492
:040A8000F894FFCF18
:100A840000000000F1015B0188013E02B9019701F9
:100A9400AB010D0A006C6564207072656E64696454
:0E0AA4006F006C6564206170616761646F00B3
:00000001FF
