:100000000C9428010C9459010C9459010C94590139
:100010000C9459010C9459010C9459010C945901F8
:100020000C9459010C9459010C9459010C945901E8
:100030000C9459010C9459010C9459010C945901D8
:100040000C9459010C9459010C9459010C945901C8
:100050000C9459010C9459010C9459010C947C0393
:100060000C9459010C9446030C941C030C945901F4
:100070000C9459010C9459010C9459010C94590198
:100080000C9459010C9459010C9459010C94590188
:100090000C9459010C9459010C9459010C94590178
:1000A0000C9459010C9459010C9459010C94590168
:1000B0000C9459010C9459010C9459010C94590158
:1000C0000C9459010C9459010C9459010C94590148
:1000D0000C9459010C9459010C9459010C94590138
:1000E0000C9459010C949D050C9481050C94700599
:1000F0000C9431020C94EB010C947B050C94AB0531
:100100000C94A1050C945B010C9474050C941F05D0
:100110000C947E020C9488010C9497010C94B10508
:100120000C948B050C9493050C9424050C94A70552
:100130000C9478050C9485050C94F9010C949905A0
:100140000C948F050C946C050000210024002700FE
:100150002A002D00300033000101000004010701D6
:100160000A0100002200250028002B002E0031008B
:10017000340002010000050108010B010505050519
:10018000070508080808020202020A0A080804040F
:10019000040401010101010101010303030303033D
:1001A0000303040707070C0C0C0C0C0C0C0C0202CC
:1001B000020206060606060606060B0B0B0B0B0BC9
:1001C0000B0B010210202008081020401020408056
:1001D000020102010804020101020408102040800B
:1001E0008040201008040201800402018040201099
:1001F00008040201080402010102040810204080E2
:10020000010204081020408000000A0B02090C0DB6
:100210000E080703040100000000000000000000B9
:1002200000000000000000000000000000000000CE
:10023000000000001211100000000000000000008B
:100240000000000000000000000000000000B105F8
:1002500011241FBECFEFD1E2DEBFCDBF00E00CBF47
:1002600022E0ACE2B2E001C01D92A83DB207E1F786
:1002700012E0A0E0B2E0E4E7F0E100E00BBF02C072
:1002800007900D92AC32B107D9F711E0C8E2D1E086
:1002900000E006C021970109802FFE010E941A0686
:1002A000C732D10780E00807A9F70E94C6030C9463
:1002B00038080C940000AF92BF92CF92DF92EF9279
:1002C000FF920F931F93CF93DF936C017B018B0100
:1002D000040F151FEB015E01AE18BF08C017D10750
:1002E00059F06991D601ED91FC910190F081E02DDA
:1002F000C6011995892B79F7C501DF91CF911F911F
:100300000F91FF90EF90DF90CF90BF90AF90089546
:10031000FC01538D448D252F30E0842F90E0821B0B
:10032000930B541710F0CF96089501970895FC0190
:10033000918D828D981761F0A28DAE0FBF2FB11DE8
:100340005D968C91928D9F5F9F73928F90E0089540
:100350008FEF9FEF08952FB7F8948091330290911B
:100360003402A0913502B09136022FBF80933F0234
:1003700090934002A0934102B093420287E392E03F
:100380000E94970197FF26C02FB7F89480913302FF
:1003900090913402A0913502B09136022FBF409166
:1003A0003F02509140026091410270914202841BD1
:1003B000950BA60BB70B40913B0250913C0260910C
:1003C0003D0270913E0284179507A607B707B0F269
:1003D0008FEF9FEF0895FC01918D828D981731F07A
:1003E000828DE80FF11D858D90E008958FEF9FEFCE
:1003F0000895FC01918D228D892F90E0805C9F4FA4
:10040000821B91098F739927089587E392E00E94D8
:10041000F90121E0892B09F420E0822F0895FC01E5
:10042000A48DA80FB92FB11DA35ABF4F2C91848D55
:1004300090E001968F739927848FA689B7892C93B2
:10044000A089B1898C91837080648C93938D848D05
:10045000981306C00288F389E02D80818F7D808308
:100460000895EF92FF920F931F93CF93DF93EC01C8
:1004700081E0888F9B8D8C8D98131AC0E889F9894B
:10048000808185FF15C09FB7F894EE89FF8960834E
:10049000E889F98980818370806480839FBF81E0CF
:1004A00090E0DF91CF911F910F91FF90EF90089511
:1004B000F62E0B8D10E00F5F1F4F0F731127E02EEC
:1004C0008C8D8E110CC00FB607FCFACFE889F98924
:1004D000808185FFF5CFCE010E940F02F1CFEB8D19
:1004E000EC0FFD2FF11DE35AFF4FF0829FB7F894F8
:1004F0000B8FEA89FB8980818062CFCFCF93DF9316
:10050000EC01888D8823B9F0AA89BB89E889F9892B
:100510008C9185FD03C0808186FD0DC00FB607FC60
:10052000F7CF8C9185FFF2CF808185FFEDCFCE0193
:100530000E940F02E9CFDF91CF91089580E090E013
:10054000892B29F00E94050281110E94000080E0A1
:1005500090E0892B49F080E090E0892B29F00E94FF
:10056000000081110E94000080E090E0892B49F09A
:1005700080E090E0892B29F00E94000081110E9408
:10058000000080E090E0892B49F080E090E0892B2A
:1005900029F00E94000081110C94000008953FB7DB
:1005A000F89480912D0290912E02A0912F02B0918B
:1005B000300226B5A89B05C02F3F19F00196A11D5A
:1005C000B11D3FBFBA2FA92F982F8827BC01CD019D
:1005D000620F711D811D911D42E0660F771F881FFC
:1005E000991F4A95D1F708950F931F93CF93DF93E7
:1005F000EC0188819981009759F02A813B81261767
:10060000370730F081E0DF91CF911F910F9108956E
:100610008B016F5F7F4F0E944707009759F09983C6
:1006200088831B830A832C813D81232B59F7FC018E
:100630001082E8CF80E0E7CF1F920F920FB60F92A3
:1006400011240BB60F922F933F934F935F936F93A9
:100650007F938F939F93AF93BF93EF93FF9387E322
:1006600092E00E940F02FF91EF91BF91AF919F9195
:100670008F917F916F915F914F913F912F910F904B
:100680000BBE0F900FBE0F901F9018951F920F92E8
:100690000FB60F9211240BB60F922F938F939F9347
:1006A000EF93FF93E0914702F09148028081E0913F
:1006B0004D02F0914E0282FD1DC09081809150024A
:1006C0008F5F8F7320915102821741F0E0915002A9
:1006D000F0E0E95CFD4F958F80935002FF91EF9120
:1006E0009F918F912F910F900BBE0F900FBE0F9087
:1006F0001F9018958081F2CF1F920F920FB60F9224
:1007000011242F933F938F939F93AF93BF93809127
:10071000330290913402A0913502B09136023091AB
:100720002C0223E0230F2D3758F50196A11DB11D92
:1007300020932C028093330290933402A0933502CD
:10074000B093360280912D0290912E02A0912F023B
:10075000B09130020196A11DB11D80932D0290939E
:100760002E02A0932F02B0933002BF91AF919F91C0
:100770008F913F912F910F900FBE0F901F90189562
:1007800026E8230F0296A11DB11DD2CFCF93DF9390
:1007900000D000D01F921F92CDB7DEB7789484B5F9
:1007A000826084BD84B5816084BD85B5826085BD6D
:1007B00085B5816085BD80916E00816080936E00FB
:1007C00010928100809181008260809381008091ED
:1007D000810081608093810080918000816080939E
:1007E00080008091B10084608093B1008091B0005E
:1007F00081608093B000809191008260809391002D
:10080000809191008160809391008091900081603F
:10081000809390008091A10082608093A1008091DC
:10082000A10081608093A1008091A00081608093ED
:10083000A00080912101826080932101809121019B
:10084000816080932101809120018160809320014B
:1008500080917A00846080937A0080917A0082602F
:1008600080937A0080917A00816080937A008091F1
:100870007A00806880937A001092C1000EEC11E03B
:10088000F801249148E8E42E41E0F42EF701849128
:10089000882399F090E0880F991FFC01E85BFE4FD8
:1008A000A591B491FC01EE59FE4F859194918FB7BB
:1008B000F8949C91292B2C938FBFE0914702F091E3
:1008C000480282E08083E0914302F091440210826A
:1008D000E0914502F09146028FEC808310924F0226
:1008E000E0914B02F0914C0286E08083E091490256
:1008F000F0914A02808180618083E0914902F09109
:100900004A02808188608083E0914902F0914A0226
:10091000808180688083E0914902F0914A02808161
:100920008F7D808324E1C22E22E0D22E87E392E0E5
:100930000E94F901181619060CF0A7C01A82198234
:100940001C821B821E821D8270E060E0CE01019637
:100950000E94F40229813A8181112CC021153105B0
:1009600019F0C9010E94BE061A8219821E821D82D8
:100970001C821B820E94AB0197FD24C08F831886C6
:100980008D809E80FFEF8F1A9F0AB401CE010196E1
:100990000E94F402882371F329813A818D819E811E
:1009A000BE01695F7F4F820F931F0E9431089E82B4
:1009B0008D82E0CF1E821D826AE272E0C9010E9430
:1009C0003108D8CF89809A80B12C70E081149104CD
:1009D00021F0C4010E94DE05B62EB0923102709360
:1009E00032028114910419F0C4010E94BE06F6017E
:1009F0008491F8012491F7019491992309F435C069
:100A0000882311F181508231F8F4E82FF0E0882733
:100A1000E35FFA4F8F4F0C941A06740578051F0593
:100A20006C05700524057B05810585058B058F0503
:100A3000930599059D052405A105A705AB058091A2
:100A400080008F7780938000E92FF0E0EE0FFF1F8A
:100A5000EE59FE4FA591B4918FB7F8949C91B110C7
:100A60007EC0209529232C938FBF4FE050E068E192
:100A700072E087E392E00E945B0142E050E068E2AE
:100A800072E087E392E00E945B010E94CF022B019B
:100A90003C018AEF882E912CA12CB12C0E94CF0210
:100AA0006419750986099709683E734081059105A7
:100AB000A8F3F1E08F1A9108A108B10828EE420EC0
:100AC00023E0521E611C711C81149104A104B10425
:100AD00029F70E949E022ACF809180008F7DB2CF9D
:100AE00080918000877FAECF84B58F7784BDACCFF7
:100AF00084B58F7DFBCF8091B0008F778093B0005D
:100B0000A3CF8091B0008F7DF9CF809190008F7737
:100B10008093900099CF809190008F7DF9CF809144
:100B20009000877FF5CF8091A0008F778093A00001
:100B30008BCF8091A0008F7DF9CF8091A000877F1F
:100B4000F5CF809120018F77809320017DCF809118
:100B500020018F7DF9CF80912001877FF5CF292B50
:100B600082CFE7E3F2E01382128288EE93E0A0E006
:100B7000B0E084839583A683B7838AE092E0918373
:100B8000808385EC90E09587848784EC90E097875C
:100B9000868780EC90E0918B808B81EC90E0938B4A
:100BA000828B82EC90E0958B848B86EC90E0978B27
:100BB000868B118E128E138E148E08951F93FC0156
:100BC00099278827BC01E89411911032E9F3193074
:100BD00010F01E30C8F31B3251F01D3249F46894F6
:100BE00006C00E940506610F711D811D911D1191A6
:100BF00010531A30B0F33EF490958095709561953E
:100C00007F4F8F4F9F4F1F910895592F482F372F98
:100C1000262F660F771F881F991F660F771F881F63
:100C2000991F620F731F841F951F660F771F881F00
:100C3000991F0895EE0FFF1F881F8BBF0790F69135
:100C4000E02D19940F931F93CF93DF93823091057A
:100C500010F482E090E0E091D602F091D70230E00B
:100C600020E0B0E0A0E0309799F42115310509F4B7
:100C70004AC0281B390B24303105D8F58A819B8165
:100C80006115710589F1FB0193838283FE0111C017
:100C9000408151810281138148175907E0F04817BC
:100CA000590799F4109761F012960C9312971396C6
:100CB0001C933296CF01DF91CF911F910F91089530
:100CC0000093D6021093D702F4CF2115310551F0CD
:100CD0004217530738F0A901DB019A01BD01DF017A
:100CE000F801C1CFEF01F9CF9093D7028093D602DC
:100CF000CDCFFE01E20FF31F819391932250310972
:100D000039832883D7CF2091D4023091D502232B69
:100D100041F420910202309103023093D5022093D6
:100D2000D40220910002309101022115310541F4D5
:100D30002DB73EB74091040250910502241B350B9C
:100D4000E091D402F091D502E217F307A0F42E1B34
:100D50003F0B2817390778F0AC014E5F5F4F24171F
:100D6000350748F04E0F5F1F5093D5024093D402D1
:100D7000819391939FCFF0E0E0E09CCFCF93DF93FE
:100D80000097E9F0FC01329713821282A091D602FB
:100D9000B091D702ED0130E020E01097A1F420815E
:100DA0003181820F931F2091D4023091D5022817F0
:100DB000390709F061C0F093D502E093D402DF91C6
:100DC000CF910895EA01CE17DF07E8F54A815B81EC
:100DD0009E0141155105B1F7E901FB83EA83499171
:100DE0005991C40FD51FEC17FD0761F480819181E3
:100DF0000296840F951FE9019983888382819381EC
:100E00009B838A83F0E0E0E012968D919C9113978A
:100E10000097B9F52D913C911197CD010296820F63
:100E2000931F2091D4023091D5022817390739F643
:100E3000309751F51092D7021092D602B093D50296
:100E4000A093D402BCCFD383C28340815181840F4D
:100E5000951FC817D90761F44E5F5F4F888199814C
:100E6000480F591F518340838A819B8193838283DA
:100E70002115310509F0B0CFF093D702E093D602E7
:100E80009ECFFD01DC01C0CF13821282D7CF4F92DB
:100E90005F926F927F928F929F92AF92BF92CF920A
:100EA000DF92EF92FF920F931F93CF93DF938C010A
:100EB000009799F4CB01DF91CF911F910F91FF9093
:100EC000EF90DF90CF90BF90AF909F908F907F90EA
:100ED0006F905F904F900C942206FC01E60FF71F75
:100EE0009C0122503109E217F30708F4AEC0D90182
:100EF000CD91DC911197C617D70720F1C530D105E8
:100F000078F0CE0104978617970750F0C61BD70BD1
:100F10002297C193D1936D937C93CF010E94BE061B
:100F2000C801DF91CF911F910F91FF90EF90DF905B
:100F3000CF90BF90AF909F908F907F906F905F9079
:100F40004F9008955B01AC1ABD0A4C018C0E9D1E9A
:100F5000A091D602B091D702512C412CF12CE12C5A
:100F6000109731F58091D4029091D502881599059A
:100F700009F05CC04616570608F058C08091000280
:100F800090910102009741F48DB79EB74091040201
:100F900050910502841B950BE817F90708F055C01E
:100FA000F093D502E093D402F90171836083B8CF46
:100FB0008D919C91119712966C90129713967C903C
:100FC0001397A815B90559F56C0142E0C40ED11C60
:100FD000CA14DB0420F1AC014A195B09DA0112964C
:100FE000159780F06282738251834083D9016D939B
:100FF0007C93E114F10471F0D7011396FC93EE9306
:1010000012978ECF22968C0F9D1FF90191838083BA
:10101000F301EFCFF093D702E093D60281CF4816C9
:10102000590608F42C017D01D3019ACFCB010E940F
:1010300022067C01009749F0AE01B8010E94280801
:10104000C8010E94BE0687016BCF10E000E068CFA8
:10105000FB01DC0102C001900D9241505040D8F7D5
:101060000895FB01DC0101900D920020E1F7089545
:04107000F894FFCF22
:101074000000D80280000000000031025B018801FA
:101084007E02F9019701EB01416363696F6E206190
:0C109400706C6963616461000D0A00006B
:00000001FF
